:020000021000EC
:10C0000000000220F9C2010021C3010023C3010086
:10C0100025C3010027C3010029C30100000000005F
:10C020000000000000000000000000002BC3010021
:10C030002DC30100000000002FC3010031C3010027
:10C040005D49020033C3010033C3010033C3010063
:10C0500033C3010033C30100CDE5010033C3010048
:10C0600033C3010033C3010033C3010033C30100F4
:10C0700033C3010033C3010033C3010033C30100E4
:10C0800033C3010001F3010033C3010033C30100D6
:10C0900033C3010033C3010033C3010033C30100C4
:10C0A00033C3010033C3010033C3010033C30100B4
:10C0B000494D020033C301000000000000000000F1
:10C0C00033C3010033C3010033C3010033C3010094
:10C0D00033C3010033C3010033C301003D1A020022
:10C0E00033C3010033C3010033C30100000000006B
:10C0F0000000000033C301000000000033C3010052
:10C10000000000000000000000000000000000002F
:10C11000000000000000000000000000000000001F
:10C12000000000000000000000000000000000000F
:10C1300000000000000000000000000000000000FF
:10C1400000000000000000000000000000000000EF
:10C1500000000000000000000000000000000000DF
:10C1600000000000000000000000000000000000CF
:10C1700000000000000000000000000000000000BF
:10C1800000000000000000000000000000000000AF
:10C19000000000000000000000000000000000009F
:10C1A000000000000000000000000000000000008F
:10C1B000000000000000000000000000000000007F
:10C1C000000000000000000000000000000000006F
:10C1D000000000000000000000000000000000005F
:10C1E000000000000000000000000000000000004F
:10C1F000000000000000000000000000000000003F
:10C200000348044B834202D0034B03B118477047E5
:10C21000C8120020C812002000000000054806498E
:10C220000B1AD90F01EBA301491002D0034B03B144
:10C2300018477047C8120020C812002000000000F4
:10C2400010B5064C237843B9FFF7DAFF044B13B15E
:10C250000448AFF300800123237010BD4813002071
:10C26000000000009073020008B5044B1BB10449A4
:10C270000448AFF30080BDE80840CFE700000000AD
:10C280004C13002090730200A3F5803A704700BF62
:10C29000154B002B08BF114B9D46FFF7F5FF002102
:10C2A0008B460F461148124A121A08F0D9FE0C4B61
:10C2B000002B00D098470B4B002B00D09847002054
:10C2C000002104000D000B4808F0D8FD08F00AFE1C
:10C2D0002000290001F07AFB08F0D6FD00000800DC
:10C2E00000000000000000000000022048130020B1
:10C2F000D4200020B14E02000649074A074B9B1A82
:10C3000003DD043BC858D050FBDC01F0A5FBFFF770
:10C31000BFFF00004874020098110020481300205D
:10C32000FEE7FEE7FEE7FEE7FEE7FEE7FEE7FEE7E5
:10C33000FEE7FEE72DE9F84F1F4B204800221A7058
:10C3400001F0D0F9824610B15046BDE8F88FDFF811
:10C3500080801B4E1B48A6EB080601F0A7FAF608E2
:10C36000F2D0DFF868B0554600273C4608EBC50917
:10C37000A5424FF0140208D058F83410D9F8000044
:10C3800008F0CCFF0028C8BF01370134A642EFD126
:10C390002BF825700135AE42E6D10B4B0B4A03EB6F
:10C3A0008606002143F8041BB342518002F10402C7
:10C3B000F8D15046BDE8F88F3414002024740200F0
:10C3C00014740200586D020008130020C8120020E7
:10C3D0009473020099B10E4B0E495B1ADB0815D01D
:10C3E00030B400220C4D02E0013293420BD035F8FC
:10C3F00022408442F8D151F8320030BC70470549E0
:10C4000051F830007047002030BC70471846704724
:10C410001474020094730200C8120020094B013901
:10C4200003EBC00003290BD8DFE801F00402080683
:10C4300004207047022070474079704700797047A8
:10C440000020704794730200704700BF2DE9F04749
:10C45000974CD4E901239A4284B064D00023C4F8F5
:10C460001834BFF34F8FA568EAB2D31C04EB8301E5
:10C4700014F82330580718D566680B7803F00303C7
:10C48000012B46D0022B03D14B88023505EB9315C7
:10C49000EAB2D4F81804D31C04EB830128B9AE42E5
:10C4A0003DD914F823305B07E7D404EB82026B1C00
:10C4B000D2680192DBB204EB830302F00302DB6873
:10C4C0000293022A05F1020731D0012A00F0A5806B
:10C4D000D4F810543DB12B6828469B689847EB6808
:10C4E0001D68002DF7D1734B5B88012B09D9724869
:10C4F000724B7349C01AC008000440F0020000F0FB
:10C50000E7F8D4E90130C01A18BF012004B0BDE833
:10C51000F0870B880235C3F383131D44B8E7A66088
:10C5200004B0BDE8F087002004B0BDE8F087BDF896
:10C53000063064489DF80460C3F389194D46502DB8
:10C5400028BF502565F38F1305F10801ADF80630BB
:10C5500001F0CAF8C6F3C20680460028B8D001F040
:10C560000DF9002301A90822404601F037F9FB43E9
:10C57000DBB20133B5EB830F4FEA830AF9B240F225
:10C580008980A5EB0A05033104EB8101082352469B
:10C590004046EDB201F022F94B492A460AF1080360
:10C5A000404601F01BF909F1030907EB9907D4F89C
:10C5B0001834002B77D1D4F8105405B3DFF80CA150
:10C5C0004FF00709EB685A79B2B11A79BDF8080043
:10C5D00002EB42015AF8200009FA01F2052E02EAA4
:10C5E000000208BF0326CA40964205D82B68414680
:10C5F0001B6828469847EB681D68002DE2D140462D
:10C6000001F0C0F8002000F001FCD4F8183403B9A0
:10C61000A760002000F002FC73E7BDF80460294821
:10C62000C6F38313062B28BF0623991C63F38916D0
:10C630008900ADF8046001F057F8C6F3C2068046E1
:10C6400000283FF445AF01F099F80023082201A922
:10C65000404601F0C3F8BDF8043013F4707FA6D053
:10C660006FF00109A9EB05090825F9B203312B4642
:10C67000042204EB8101404601F0B0F8BDF804301B
:10C68000013709EB0702C3F38313934205F1040555
:10C69000EBD88CE703312A4604EB8101082340469E
:10C6A00001F09CF87FE7404601F06CF829E700BFF5
:10C6B00034140020D8120020B473020094730200D6
:10C6C000206D020024740200401400200813002092
:10C6D0002DE9F04F5D4C87B0064600200F4600F074
:10C6E00095FBD4E9015303F580735B1B012B7DD8C7
:10C6F00004F21C4804F5836A04F214491AE0BDF8F8
:10C700000E30C3F389130333090C0BEB930B48462C
:10C71000019100F0D7FB0199002839D04046C4F8B8
:10C7200008B000F093FBD4E9013202F58072D21A0E
:10C73000012A5CD80121404600F088FB504600F0F9
:10C74000B1FB484600F0AEFBA368DAB2D11C04EBA3
:10C75000810014F8211001F0040C490728D404EBDF
:10C760008202591CD2680392C9B204EB810102F023
:10C770000302012AC96803F1020B30D0022ABED09D
:10C7800000214846019100F09DFB01990028C5D188
:10C790004046C6E743880EEB9313DAB2D11C04EB94
:10C7A000810014F8211001F0040CBCF1000FD6D068
:10C7B000017801F0030101290BD0022903F1020ED7
:10C7C00002F10301E6D004EB8100BCF1000FEFD1D0
:10C7D000C5E702880233C2F383121344DDE7BDF8D4
:10C7E0000C30C3F38313090C9B4490E72B46DAB259
:10C7F000033202330521002044F82210636000F068
:10C800000DFB0021124800F013FB80F31000F10033
:10C810006B1C01F03801DBB2EDB204EB830341F095
:10C8200001010004033540EA164641EA8727DE602D
:10C8300044F8257023781BB1FFF708FE0028FBD1D0
:10C84000FFF702FE07B0BDE8F08F00BF34140020F0
:10C85000501800202DE9F04F614C87B006460020AB
:10C860000F46904600F0D2FAD4E9015303F58073E5
:10C870005B1B022B7FD804F21C4904F5836B04F286
:10C88000144A1BE0BDF80E20C2F389120332090CD2
:10C8900003EB92035046CDE9003100F013FB019900
:10C8A00000283AD0009BA360484600F0CFFAD4E9B4
:10C8B000013202F58072D21A022A5DD8012148465F
:10C8C00000F0C4FA584600F0EDFA504600F0EAFADB
:10C8D000A368DAB2D11C04EB810014F8211001F036
:10C8E000040C490729D404EB8202591CD268039234
:10C8F000C9B204EB810102F00302012AC96803F105
:10C90000020331D0022ABDD000215046CDE90031CA
:10C9100000F0D8FA01990028C4D14846C5E74388F9
:10C920000EEB9313DAB2D11C04EB810014F8211042
:10C9300001F0040CBCF1000FD5D0017801F0030127
:10C9400001290BD0022903F1020E02F10301E6D006
:10C9500004EB8100BCF1000FEFD1C4E70288023381
:10C96000C2F383121344DDE7BDF80C20C2F3831237
:10C97000090C13448EE72B46DAB203320333452108
:10C98000002044F82210636000F048FAAB1CDBB2D0
:10C9900004EB830300211348C3F80C8000F048FA2D
:10C9A00080F31000F1006B1C01F03801DBB2EDB236
:10C9B00004EB830341F041010004033540EA1646CD
:10C9C00041EA8727DE6044F8257023781BB1FFF722
:10C9D0003DFD0028FBD1FFF737FD07B0BDE8F08F24
:10C9E00034140020501800202DE9F043304ED6F8C2
:10C9F00010440546002074B1234601E01B6853B182
:10CA0000DB681A798242F9D101300A28F3D14FF05C
:10CA1000FF30BDE8F083EB681871D6F81034002BB6
:10CA200041D0DA68EB6812681A60D6F81034DB6817
:10CA30001D60204F204BFF1AFF08EAD01F4CDFF883
:10CA4000808003F1070C00224FF0070EEE681CF8FF
:10CA5000323096F8049026688B4209EB490928BFCA
:10CA60000B4603FA09F373400EFA09F903EA0903C6
:10CA70007340C3F3C206C3F382194E4538BF4E4616
:10CA800003F007094E4538BF4E46C3F342294E45D1
:10CA900038BF4E4628F822600132BA4244F8043BBF
:10CAA000D4D1BDE8F083C6F81054EA681360C0E73B
:10CAB0003414002014740200947302000813002040
:10CAC000CA12002038B5084BD3F8104401251D7058
:10CAD0004CB1E3685D71236820465B689847E36862
:10CAE0001C68002CF5D138BD3414002030B5C38843
:10CAF00085B004460D461BBB217A05291ED0627AFB
:10CB000082B9134AA08852F8212003920021FFF72E
:10CB100061FC039A0F490346284605B0BDE8304042
:10CB200000F044BAA088FFF779FC0B4B0B4953F88F
:10CB30002020284600F03AFA217AE2E705B030BD1D
:10CB4000074A00920749084A284600F02FFAD3E71F
:10CB5000306E0200906D02000C6E02008C6D0200BF
:10CB6000846D02006C6D0200646D02002DE9F043DB
:10CB700085B04FF0000C0C9C814694F80C8084F832
:10CB80000CC00E461746184621461D46FFF7AEFF5D
:10CB9000062F09D8DFE807F0042E343B444F1F006E
:10CBA0004946204600F002FA2B7A052B05D06B7A15
:10CBB0005BB92749204600F0F9F9204600F0EAF970
:10CBC00084F80C8005B0BDE8F083224A2249204653
:10CBD00000F0ECF9EDE7D6E90413F2680393B368CB
:10CBE0000291CDE900324946D6E90023204600F003
:10CBF000DDF9D9E732684946204600F0D7F9D3E796
:10CC0000D6E900234946204600F0D0F9CCE7B368C6
:10CC10000093D6E900234946204600F0C7F9C3E750
:10CC2000D6E9023201920093D6E900234946204614
:10CC300000F0BCF9B8E7D6E90321B3680291CDE969
:10CC400000324946D6E90023204600F0AFF9ABE7B1
:10CC50009C6D0200846D02008C6D0200082900D9D1
:10CC600070472DE9F04F9B4683B000241B7B8BF867
:10CC70000C400D4606465946104690460193DFF893
:10CC8000D0902C4FFFF732FF05E0325D013400F009
:10CC90008DF9082C09D0A54239465846F5D84946A1
:10CCA000013400F083F9082CF5D12349DFF8A49072
:10CCB000224C234F584600F079F94FF0000A0DE05E
:10CCC000D15D11F0970F08BF2E22214658460AF178
:10CCD000010A00F06BF9BAF1080F10D0554505D9DB
:10CCE00016F80A207E2AEBD92E22EEE7494658464E
:10CCF0000AF1010A00F05AF9BAF1080FEED198F8DA
:10CD00000830052B02D098F8093063B90D49584610
:10CD100000F04CF9584600F03DF9019B8BF80C30BF
:10CD200003B0BDE8F08F084A0849584600F03EF9C4
:10CD3000ECE700BFA06D0200AC6D0200B06D020018
:10CD40003D7202009C6D0200846D02008C6D020039
:10CD5000A86D02004873020000B585B003460021AB
:10CD600001AA44F20100CDE90111039300F004F897
:10CD700005B05DF804FB00BF70B572B6FFF7A2FE08
:10CD8000FFF764FB0028FBD1184D6B88F3B9184BF3
:10CD90001B68DB070DD5174C174E00BE6B88012BA7
:10CDA00007D9A01BC0080004144940F00200FFF797
:10CDB0008FFCBFF34F8F1249124BCA6802F4E06236
:10CDC0001343CB60BFF34F8F00BFFDE7094C0A4E02
:10CDD0000D49A01BC008000440F00100FFF778FCDB
:10CDE000034B1B68DA07D9D5D7E700BFD81200205C
:10CDF000F0ED00E0B473020094730200506E020084
:10CE000000ED00E00400FA05446E020072B6024A2A
:10CE10001368013313607047EC180020034A13684D
:10CE2000013B136003B962B6704700BFEC180020E5
:10CE300010B4034653E8000F0A4643E8002494F078
:10CE4000000FF7D15DF8044B704700BF10B40346E4
:10CE500053E8002F02EB010043E8000494F0000FB8
:10CE6000F6D15DF8044B704710B4034653E8002F29
:10CE7000A2EB010043E8000494F0000FF6D15DF846
:10CE8000044B704710B4034653E8002F8A422CBF6E
:10CE9000501A104643E8000494F0000FF4D15DF8F6
:10CEA000044B704710B40346012253E8001F41EAC7
:10CEB000020043E8000494F0000FF6D15DF8044B43
:10CEC000704700BF10B40346002253E8000F00EA89
:10CED000020143E8001494F0000FF6D15DF8044B12
:10CEE000704700BFB8B130B4D0E90112521A0468DB
:10CEF000D2B2531E2160DBB242B101680A685C1EE7
:10CF0000551C0D601370E3B2FF2BF6D103680020AF
:10CF1000187130BC70470E20704700BF38B504460A
:10CF20000020FFF773FFD4E900311A688A4215D94F
:10CF3000511E19602168A3680868258B12F8012C1E
:10CF4000E4681B1A0879DBB2984205FB024400D260
:10CF50000B710020FFF762FF204638BD002400203F
:10CF6000FFF75CFF204638BD38B5054600200C466B
:10CF7000FFF74CFF2A681368591C1160E9682A8B77
:10CF8000641AB4FBF2F41C70BDE838400020FFF7CF
:10CF900045BF00BF826842B110B5044643690168CD
:10CFA000006998470023A36010BD70470EB400B518
:10CFB00082B0039921B104AB01AA019300F0ACF84F
:10CFC00002B05DF804EB03B0704700BF2DE9F04FED
:10CFD000164683B0B142DDE90C920F4605469A46EB
:10CFE000C0F095800B464FF00108B3FBF6F39E426C
:10CFF00008F10108F9D9D04538BFD04612F0010335
:10D00000019302D1B9F1000F5ED1AA68012403E0B7
:10D010000AF1FF3A06FB04F4BAF1010FF8D8B7FBA6
:10D02000F4F39E42F6D9DFF8ECA007E0B442B4FB7B
:10D03000F6F31AD3AA681C46B7FBF3F31AF803B049
:10D04000BBF10A0F04FB137728D02B68511CA96091
:10D0500003F802B0D5E901329A42E7D32846FFF738
:10D0600099FFB4FBF6F3B442E4D2019B9BB1B9F152
:10D07000000F10D02024C84509F1FF390BD2AB684E
:10D080002A68591CA960D454D5E901329A4214D2B5
:10D09000B9F1000FEFD103B0BDE8F08F511C2B6840
:10D0A000A9604FF00D019954D5E901329A42CCD3D1
:10D0B0002846FFF76FFFAA68C7E72846FFF76AFF11
:10D0C000B9F1000FD7D1E6E793071AD42024AA6854
:10D0D000C84502F1010199D22B68A9609C54D5E999
:10D0E00001329A4209F1FF3903D2B9F1000FEFD1B1
:10D0F0008CE72846FFF74EFFAA68B9F1000FE7D189
:10D1000084E7BAF1000F0CBF30242024DFE74FF092
:10D11000010870E7606E0200002900F054822DE9DA
:10D12000F04FDFF8B8950C7885B0064690460D466E
:10D130004FF00D0A10E00A2CB36800F0AD803268A1
:10D14000591CB160D454D6E901329A4280F0A080D3
:10D150002C78002C00F087800135002C00F08380B3
:10D16000252CE8D1294600270D4611F8012B2D2A40
:10D1700000F08880302A00F088802B2A7AD02A2A72
:10D1800000F09980A2F13003092B4FF000040BD876
:10D1900004EB840402EB440415F8012FA2F13003E0
:10D1A000092BA4F13004F3D92E2A00F0908000233B
:10D1B00001E015F8012F02F0FB016829F9D0252ABA
:10D1C00000F07781583AD1B2202947D8202A45D893
:10D1D000DFE812F0350144004400440044004400FC
:10D1E000440044004400440044004301130144004F
:10D1F000440044004400130144004400440044003F
:10D2000044004400D20044004400A20044009400C2
:10D2100044004400350101209842024638BF1A46B6
:10D220000292002C40F05081B80740F16E81002B33
:10D2300040F04E821C46BBF1000FC0F20A827A0712
:10D2400000F11A8207F00302022A00F0EA81CDE918
:10D25000004759460A223046FFF7B8FE01352C78C0
:10D26000002C7FF479AF337B002B40F01C8105B09C
:10D27000BDE8F08F0D4611F8012B2D2A47F0040769
:10D280007FF478AF47F001076EE747F002076BE7DE
:10D290003046FFF77FFE5BE73268591CB16002F849
:10D2A00003A0D6E901239342FFF449AF3046FFF7CC
:10D2B00071FEB36843E7D8F800301A1DC8F80020A3
:10D2C0006A781C682E2A05F101057FF470AF6A7830
:10D2D000A2F13003092B05F101054FF000033FF6E1
:10D2E0006AAF03EB830302EB430315F8012FA2F1AE
:10D2F00030010929A3F13003F3D95CE7D8F8002005
:10D30000111DC8F8001011683046CDE900470A2207
:10D31000FFF75CFE0135A2E7D8F800301A1DC8F807
:10D32000002017F00107D3F800B040F0F080BBF107
:10D33000000F03D0584607F083FF0746BC4240F277
:10D340004381002C00F04081202205E0BC4200F027
:10D350003B81002C00F03881B1683368481CB06014
:10D360005A54D6E90130984204F1FF34EED33046E6
:10D37000FFF710FE2022E9E7D8F80020131DC8F8B7
:10D380000030B36831681768581C3022B060CA5446
:10D39000D6E90123934280F0EF803268581C78214F
:10D3A000B060D154D6E901329A4280F0E0800F2F6C
:10D3B00003D93B461B090F2BFCD84FF0805406E0E5
:10D3C0000F2C4FEA14137FF649AFB2681C46B7FB27
:10D3D000F4F319F803B0BBF10A0F04FB137754D030
:10D3E0003368511CB16003F802B0D6E901329A42A9
:10D3F000E6D33046FFF7CEFDE2E7D8F80020111D56
:10D40000C8F80010D2F800B08BEAEB72A2EBEB7216
:10D41000092A7FF700AFDFF8C8C20120114663294F
:10D42000ACFB02E200F101004FEAD202F6DC9842C6
:10D43000024638BF1A460292002C45D1F4E6D8F8CD
:10D440000020111DC8F8001011683046CDE90047D2
:10D450001022FFF7BBFD013501E7D8F800301A1D97
:10D46000C8F800201C78B3680A2C00F011813268DB
:10D47000591CB160D454D6E901329A42FFF4EEAEA1
:10D480003046FFF787FD0135E9E63368511CB1608E
:10D4900003F802A0D6E901329A42A1D33046FFF741
:10D4A00079FDB2689CE7304605B0BDE8F04FFFF764
:10D4B00071BDB3683168581CB060CA54D6E90132F6
:10D4C0009A42DDD20135CAE6BBF1000F59DB7A077B
:10D4D00057D4B80702D5002B3FF4ADAEF9073FF59E
:10D4E000AAAE94B120220299A142BFF4A4AEB168C1
:10D4F000481CB06030684254D6E90101814204F111
:10D50000FF3480F0D480002CEDD1002493E69BF80A
:10D510000030002B00F0E080B0685F46CBF10102E4
:10D520000A2B02EB070B3CD0411CB16031680B5455
:10D53000D6E90130984226D217F8013F002BEFD1EF
:10D540005C457FF68BAE202702E05C453FF486AE5B
:10D55000B2683368511CB1609F54D6E901329A42D7
:10D5600004F1FF34F1D33046FFF714FDEDE7304608
:10D57000FFF710FDB2681AE73046FFF70BFDB368FE
:10D580000BE7013CA5E730460292FFF703FD17F8D1
:10D59000013F002BD4D0029AB0680A2B02EB070B94
:10D5A000C2D1411CB160316801F800A0D6E9011078
:10D5B0008842B9D33046CDE90232FFF7EBFCDDE912
:10D5C0000232B068B0E770479BF80040002C3FF48F
:10D5D00045AE0A2CB0680ED03368421CB2601C54B1
:10D5E000D6E90130984214D21BF8014F002C3FF4C9
:10D5F00035AE0A2CF0D13368421CB26003F800A0AB
:10D60000D6E901309842E7D33046FFF7C3FCB06853
:10D61000E2E73046FFF7BEFC1BF8014F002CD8D1E3
:10D620001CE6002B7FF413AE8CB130220299A1428C
:10D63000BFF40DAEB168481CB06030684254D6E902
:10D640000101814204F1FF343BD2002CEED10024D1
:10D65000FDE5B1684A1CB26032682D205054D6E90D
:10D6600001219142CBF1000BFFF4ECAD3046039366
:10D67000FFF790FC039BE5E5B1684A1CB260326895
:10D680002B205054D6E901219142FFF4DBADEDE7A8
:10D690003268591CB16002F803A0D6E90123934215
:10D6A000FFF4E5AE3046FFF775FCB368DFE63046C1
:10D6B0000393FFF76FFC039B2022002C7FF413AF32
:10D6C00023E730460393FFF765FC039B3022BCE75A
:10D6D000F9073FF5B0AD18E79B4631E7606E0200F1
:10D6E000CDCCCCCCFFF7FEBB2DE9F041058B03314F
:10D6F000043D4E198046B6FBF5F6FFF70FFCA0B3CC
:10D70000F6B24FF48073013E0446C580C0F8008035
:10D7100083802BD00346002508E06279AE4202F1F7
:10D72000010262713860C0F800801FD040461F4679
:10D73000FFF7F4FB013503460028EED16779791E27
:10D7400017D02246013399421268FBD1D2F80080EB
:10D750005FB12668002501E0344636682146013570
:10D760004046FFF701FCAF42F6D800242046BDE852
:10D77000F08120682146FFF7F7FBF6E7043001212E
:10D78000FFF764BB2DE9F041012104460430FFF7A7
:10D790006BFB10F0FF0301D0BDE8F0816779791EC3
:10D7A00016D02246013399421268FBD1D2F800808C
:10D7B000002FF1D02668002501E034463668214666
:10D7C00001354046FFF7D0FBAF42F6D8BDE8F08107
:10D7D00020682146BDE8F041FFF7C6BB2DE9F843BC
:10D7E0000546C6884079144606FB00F2043A04EB6D
:10D7F000030C1F1D624538BFD41ABE428846B7FBD2
:10D80000F6F106FB117002D801392D68FCD1371AE8
:10D81000A74228BF27469CB14FF000090430E41B03
:10D8200028443A4608EB090107F080FBA642B944B8
:10D830002D6837464FF0000028BF2746002CEDD159
:10D84000BDE8F8832DE9F8430546C68840791446BB
:10D8500006FB00F2043A04EB030C1F1D624538BFBF
:10D86000D41ABE428846B7FBF6F106FB117002D807
:10D8700001392D68FCD1371AA74228BF27469CB131
:10D880004FF0000904302918E41B3A4608EB090060
:10D8900007F04CFBA642B9442D6837464FF0000014
:10D8A00028BF2746002CEDD1BDE8F883826800230D
:10D8B000936082681361826853618268D360826872
:10D8C000536082681360704710B4034653E8000F3A
:10D8D00000EA010243E8002494F0000FF6D15DF85D
:10D8E000044B704701292DE9F84304D0022943D0A5
:10D8F00089B1BDE8F883244B5B88022BF9D9234B0F
:10D9000023482449C01AC0080004BDE8F84340F089
:10D910000300FEF7DDBE1E4E1C4B1F4FDFF8688074
:10D920001E4CDFF88090F61AF608360446F003061F
:10D930003D4614E03B781A490D2B4FF00202204679
:10D9400004D00A2B1EBF01222946204606F082FE83
:10D9500001222946204606F0A5FE0028C9D120460E
:10D9600006F09CFEB8F80230022BE3D90246494685
:10D970003046FEF76FFFDDE7BDE8F843064907488C
:10D98000012206F08FBE00BFD8120020947302005F
:10D99000B4730200706E0200F0180020946E020052
:10D9A0009C6D0200786E020008B54FF40041002023
:10D9B000FEF7C0FC18B9BDE8084001F06DBDFFF7E7
:10D9C000CBF9BDE8084001F067BD00BF30B583B0BA
:10D9D000FFF7EAFF1849042000F0C4FA262000F0FF
:10D9E00017FC00F07FFA154802F0E8F808BB144C69
:10D9F000204600F0EFFA2068694600F059F9114B13
:10DA0000BDF800005880BDF80250BDF804400E4A31
:10DA10000E490F489D80DC8006F0A8FF0D490C4898
:10DA20000223012207F012F901F01CFEFEF70EFDA1
:10DA3000FAE7FFF791F9DAE7846E0200946E0200CC
:10DA40000C120020D81F002031E00100A01100209E
:10DA5000AC110020B411002010B4814B1B68082BBE
:10DA600021D0804AD2F8883043F47003C2F888305D
:10DA7000BFF34F8FBFF36F8F794B1B68082B00F0FC
:10DA8000AA804FF01023D3F80022002AC0F2B680FB
:10DA9000D3F80432002BC0F2B180734B734A1A6082
:10DAA0005DF8044B70474FF080414FF080520020EA
:10DAB000C1F80C016E4BC1F81001C1F83805D2F85D
:10DAC0000414C3F82015D2F80814C3F82415D2F8AA
:10DAD0000C14C3F82815D2F81014C3F82C15D2F87A
:10DAE0001414C3F83015D2F81814C3F83415D2F84A
:10DAF0001C14C3F84015D2F82014C3F84415D2F80A
:10DB00002414C3F84815D2F82814C3F84C15D2F8D9
:10DB10002C14C3F85015D2F83014C3F85415D2F8A9
:10DB20003414C3F86015D2F83814C3F86415D2F869
:10DB30003C04C3F868054F49D2F84004C3F86C05AB
:10DB40000968D2F84424C3F87025052937D84A4B10
:10DB50005B5C13B1494B4A4A1A604A4B5B5C63B148
:10DB60003F4B49491B68434AFB20C1F81805082B65
:10DB700011687FF476AF052921D8444B5B5C93B1E3
:10DB80004348444B364C02681B682468394922F0EC
:10DB90000F0203F00F031343082C096803607FF49E
:10DBA00060AF05290BD83C4B5B5C43B12C4B3B4A27
:10DBB0001B684FF40071082B11607FF452AF4FF0D7
:10DBC0008043D3F80024D2077FF54BAF6FF00102FA
:10DBD000C3F8002445E7274B1B68052B08D94FF0F5
:10DBE00010224FF08043D2F80822C3F8582548E7A6
:10DBF0002B4AD35C002B3FF444AFF0E7294A0123C2
:10DC0000C2F80435D2F80034002BFBD04FF01023BB
:10DC10001221244AC3F80012D2F80034002BFBD0A2
:10DC20004FF0102312211F4AC3F80412D2F8003417
:10DC3000002BFBD000231B49C2F80435D1F8003477
:10DC4000002BFBD0BFF34F8F0649174BCA6802F475
:10DC5000E0621343CB60BFF34F8F00BFFDE700BF0F
:10DC60003001001000ED00E09C1100200090D00376
:10DC700000C0004034010010C06E02008C5600400D
:10DC800048810300C06E020000F00040C06E020038
:10DC9000E40E004058020010C06E020040960240A0
:10DCA000B86E020000E001400400FA050000000028
:10DCB000F0B5020E2DED028B07EE102AC0F30742DD
:10DCC00007EE902A83B0DFED4E6A0190F8EEE77A16
:10DCD000B8EEC77A84B2204687EEA68A0D46C7EE14
:10DCE000268A08F0A1FC474B002208F031FE08F01C
:10DCF000B5FF08F0ABFC9FED401B41EC100B08F0AA
:10DD0000C7F9414B002251EC100B08F03FFB41ECEE
:10DD1000100B08F0B3F93C4953EC102B002008F02D
:10DD200035FB28EE288A064618EE100A0F4608F042
:10DD30008DFC0B4602463946304608F0DFFC08F001
:10DD40008DFF324BA3FB0434640978EEC86A07EEFA
:10DD5000900A052C48D8DFE804F003262F363B4212
:10DD60009FED2B7A38EE268A77EEA67A37EE267A62
:10DD7000DFED286A28EE268A67EEA67ABCEEC88A0E
:10DD800027EE267A18EE103AFCEEE77ABCEEC77A58
:10DD90002B8017EE903A6B8017EE103AAB8003B0F1
:10DDA000BDEC028BF0BDB0EE486A9FED197A08EE2B
:10DDB000100AF0EE467AD5E7F0EE487A07EE100A40
:10DDC0009FED138ACEE7B0EE487A9FED118AC9E73E
:10DDD000B0EE487ADFED0E7A08EE100AC2E707EEE1
:10DDE000100ADFED0B7ABDE79FED097AF0EE477A76
:10DDF000B0EE478AB6E700BF000000000000004018
:10DE00000000C84200004E400000F03F898888882A
:10DE10000000000000007A4408B5262000F008FA4F
:10DE2000074B10B11A6801321A601A68022A00D032
:10DE300008BD04490120002208701A6008BD00BF17
:10DE40007C1900208019002008B5262000F0F0F988
:10DE500058B1104A1368012B12D00F4900231360E8
:10DE60000B70BDE8084000F079B90C4B1A78022A13
:10DE70000BD009490A785AB10120064A1870EDE71B
:10DE8000064B054902201870E8E7024A1870E4E7DB
:10DE9000004AE3E77C19002080190020E01F0020E1
:10DEA00008B50E4801F090F870B90C4800224FF404
:10DEB000A47101F02FF870B9094800224FF4804195
:10DEC00001F028F818B908BDFEF746FFEDE7BDE8F8
:10DED0000840FEF741BFFEF73FFFEDE7C811002005
:10DEE000E811002010B582B000F0AAF900F0C4FFDC
:10DEF00008BB174A1748002100F0F6FF20BB164A5E
:10DF00001648002100F0F0FFD8B99DF80630144AF9
:10DF100023F0070340F2033401A926208DF80630D0
:10DF2000ADF8044000F0E4F940B90121262000F0EA
:10DF3000D1FA02B010BDFEF70FFFDAE7FEF70CFFD3
:10DF4000F3E7FEF709FFE0E7FEF706FFD7E700BFBC
:10DF500019DE0100046F020049DE0100086F0200B3
:10DF6000A1DE010000281BDDF0B404390D4F01EBE8
:10DF700080040326012551F8043F1F2B86BF03F0C0
:10DF80001F033A464FF0A04203F5E0708C4205FAB9
:10DF900003F342F82060C2F80835ECD1F0BC7047BA
:10DFA000704700BF0003005000B5034685B01988D4
:10DFB0009A78DB7803934FF4FE20CDE9011206F046
:10DFC00021FF032201A94FF4FE2006F039FF05B01E
:10DFD0005DF804FB70B54FF4FE2584B02B685A1C25
:10DFE000044616D10F4A1268013212D10E4A126845
:10DFF00001320ED10D4B93E8070001AE86E8070011
:10E00000284606F0FFFE31460322284606F018FF98
:10E010002B68044A23801268034BA2701B68E370CC
:10E0200004B070BD04F0070008F007000C6F020098
:10E0300030B5414A13889BB283B0A3B93F4C404BE3
:10E040001B78022B23D03F4B18686946FFF730FE40
:10E05000BDF80010BDF80220BDF804306180A28038
:10E06000E38003B030BD3848344C05782DBB23889D
:10E0700011889BB289B25B1A002B1ADB12882388A5
:10E080009B1A9BB223802E4B1B78022BDBD12F4B8C
:10E090001B78022B2BD0032B1ED0012B294BD3D165
:10E0A0001A88013292B2B2F5B47F28BF00221A80DA
:10E0B000CAE7012325800370C1E72388244D118816
:10E0C0002D6889B211FA83F3AB421DDC12882388D4
:10E0D00013449BB22380B2E71E490B781BB3194B44
:10E0E000DA780132D2B2632ADA70ADD909E01A497E
:10E0F0000B7873B1134B9A780132D2B2632A9A70BB
:10E10000A2D900220A709FE7ADB2002325800370D8
:10E1100095E70C4B9A78013AD2B29A70002A93D1C3
:10E1200001220A7090E7074BDA78013AD2B2DA702E
:10E13000002A89D1F4E700BF82190020D81F0020EF
:10E14000E01F00200C120020101200208419002073
:10E1500008120020121200201112002010B5234BCB
:10E160001B78012B1DD0224B1B78032B0AD8DFE82C
:10E1700003F0120E0A021F491F4B00204FF4FA72DF
:10E1800008801A8010BD1B4B96221A8010BD194BB7
:10E1900028221A8010BD1749174A00230B801380CC
:10E1A00010BD164B5B88022B14D8114C2378032B1F
:10E1B00009D00133DBB22370002BD6D11048FFF712
:10E1C000F3FE2378D1E700230D482370FFF7ECFE20
:10E1D0002378CAE70B4B0C480C49C01AC00800044E
:10E1E00040F00300FEF774FADFE700BFE01F0020F5
:10E1F0008419002082190020D81F0020D812002086
:10E200000C12002094730200B4730200186F020015
:10E210001F2886BF00F01F00044B4FF0A04300F5FD
:10E22000E0700C2243F82020704700BF000300502C
:10E2300008B500F0BBF980F00100C0B208BD00BF16
:10E24000F0B5264C94F86A3083B0002B42D14FF6DB
:10E25000FF70FF255A09012A0CBF02464FF0FF321A
:10E2600003F01F01CA40D20748BFE21803F10103BF
:10E2700048BF82F83050302BECD14FF0FF334FF0D5
:10E28000FF364FF0FF370622002115482366C4E908
:10E290000233C4E90433C4E90633C4E90833C4E9EA
:10E2A0000A33C4E9006706F0DBFE0E4BC02283F898
:10E2B000062340221A600C4B0C4A002018601B6891
:10E2C000019301214FF00043019D84F86A10C2F8C8
:10E2D000043300E0082003B0F0BD00BF881900201F
:10E2E000EC19002000E100E07C610040006000408B
:10E2F000F0B4754B1D1895F93040002C61DA8C781C
:10E30000A707C4F3400C53D41C6A013400F0D58035
:10E310005C6A013400F0CA800C260A2453F82450A9
:10E32000013552D0651CB5423FD253F825700137F4
:10E3300000F0B480A51CB54237D253F825700137E0
:10E3400000F0AC80E71CB7422FD253F827500135BC
:10E350003AD0271DB74228D253F82750013533D081
:10E36000671DB74221D253F8275001352CD0A71D85
:10E37000B7421AD253F82750013525D0E71DB742CE
:10E3800013D253F8275001351ED004F10807B742C5
:10E390000BD253F82750013516D00934B44204D2B9
:10E3A000DC6A013408BF0B240FD00420F0BC704796
:10E3B0001C68013474D05C6801346DD008260224D6
:10E3C000ACE70820F0BC70473C461E1865B243F825
:10E3D000242086F83050BCF1000F02D11C4484F890
:10E3E00058008A7854071AD4D60744D41F284C788A
:10E3F00087BF364E00F01F0202464FF0A04602F5DE
:10E40000E072A40046F82240314EC40800F0070C28
:10E41000375D012202FA0CF23A4332558A7812F043
:10E4200002021CD0AB0003F1804303F5C04309781E
:10E43000D3F8104524F44F3424F44074C3F8104545
:10E4400002020904D3F8100501F4403102F47C52B1
:10E450000A430243C3F810250020F0BC7047083D72
:10E460002B44087893F8601041EA801183F860101B
:10E470001046F0BC70471F2887BF144A00F01F04E5
:10E4800004464FF0A04202EB8402D2F8004724F089
:10E490000204C2F80047B7E7012496E72C4694E748
:10E4A000002485F830401A6025469AE7092685F849
:10E4B00030605A623446354690E7082685F8306069
:10E4C0001A623446354689E7881900200003005057
:10E4D000EC19002070B4324C251883B095F9303017
:10E4E000072B22DD234493F858309B09032B46D099
:10E4F000012B0CBF4FF400324FF440321F288ABF6B
:10E50000284B4FF0A04300F01F0003EB8000D0F831
:10E51000003723F44033C0F80037D0F800371A43EF
:10E52000C0F8002703B070BC7047DAB2072AF9D8E8
:10E53000980000F1804000F5C04003F140029200D5
:10E54000D0F8106592B202F1804202F5C04246F066
:10E550000106C0F810650020106012680192019A4F
:10E560000029DFD095F9302054F82220002AD9D094
:10E570000D49012202FA03F3C1F80433D2E71F2840
:10E580008ABF084A4FF0A04200F01F03D2F81025BE
:10E5900098BF0346DA4002F0010202321204ADE7EE
:10E5A0008819002000030050006000401F288ABF27
:10E5B000054B4FF0A04300F01F00D3F8103523FAAD
:10E5C00000F000F001007047000300502DE9F04713
:10E5D000002384B0CDE90233D54A1168012900F047
:10E5E00040821E46D34B1A68012A00F02C82D24B7F
:10E5F0001A68012A00F01982D04B1A68012A00F02B
:10E600000682CF4B1A68012A00F0F381CD4B1A68BD
:10E61000012A00F0E081CC4B1A68012A00F0CD817C
:10E62000CA4B1A68012A00F0A181C94B1A68012A55
:10E6300020D0E6B1C74F00240125A30003F1804399
:10E64000354203F5C0434FEA45050BD0D3F810051A
:10E6500057F82420D3F81015C0F30520C1F3014169
:10E6600002B190470134082CE7D1002E17DB04B02B
:10E67000BDE8F08700221A601B6801934FF0A042AA
:10E68000019BD2F82015B44B0291C2F82015D3F8A3
:10E6900020250392C3F82025002E40F08B81AD4C3D
:10E6A000AD4E01254FF0A04794F96000431C46D0C1
:10E6B000C0F3C20204AB1A4400F0070312F8082C9E
:10E6C00005FA03F31A42C1B200F03F0037D01F2809
:10E6D00000F2258102464FF0A04909EB820304EBCA
:10E6E000000ED3F800C7D3F8008728F44038C3F8E9
:10E6F0000087CCF3014C9EF93080D3F800E754F842
:10E700002880BCF1020F0CBF4FF4403A4FF4003A9E
:10E7100005FA02F24EEA0A0EC3F800E7C9F820250E
:10E72000B8F1000F0BD08909032900F0B381BCF1C7
:10E73000020F00F0BE81BCF1030F00F0A88194F934
:10E740006100411C46D0C0F3C20204AB1A4400F081
:10E75000070312F8082C05FA03F31A42C1B200F0BD
:10E760003F0037D01F2800F2DE8002464FF0A0495C
:10E7700009EB820304EB000ED3F800C7D3F800873F
:10E7800028F44038C3F80087CCF3014C9EF9308060
:10E79000D3F800E754F82880BCF1020F0CBF4FF407
:10E7A000403A4FF4003A05FA02F24EEA0A0EC3F874
:10E7B00000E7C9F82025B8F1000F0BD0890903291B
:10E7C00000F06D81BCF1020F00F06B81BCF1030F12
:10E7D00000F0628194F96200421C46D0C0F3C2028C
:10E7E00004AB1A4400F0070312F8082C05FA03F3EF
:10E7F0001A42C1B200F03F0037D01F2800F2AE80AD
:10E8000002464FF0A04909EB820304EB000ED3F857
:10E8100000C7D3F800879EF930E028F44038C3F8E9
:10E820000087CCF3014CD3F800A754F82E80BCF13C
:10E83000020F0CBF4FF4403E4FF4003E05FA02F2C7
:10E840004EEA0A0EC3F800E7C9F82025B8F1000F18
:10E850000BD08909032900F01381BCF1020F00F0ED
:10E860002481BCF1030F00F0088194F96300431C7C
:10E8700045D0C0F3C20204AB1A4400F0070312F8FB
:10E88000082C05FA03F31A42C1B200F03F0036D05B
:10E890001F2867D802464FF0A04909EB820304EB1A
:10E8A000000ED3F800C7D3F800879EF930E028F4B3
:10E8B0004038C3F80087CCF3014CD3F800A754F8D4
:10E8C0002E80BCF1020F0CBF4FF4403E4FF4003ECF
:10E8D00005FA02F24EEA0A0EC3F800E7C9F820254D
:10E8E000B8F1000F0BD08909032900F0CE80BCF1EC
:10E8F000020F00F0E280BCF1030F00F0C380D7F8F4
:10E9000020250292C7F82025D6F820350393C6F8B3
:10E91000203513437FF4C8AE04B0BDE8F08701F0A2
:10E920001F02B146D9E601F01F02B14620E700BF41
:10E930000061004004610040086100400C6100403B
:10E940001061004014610040186100401C610040EB
:10E950007C610040881900200003005001F01F0274
:10E96000B14650E701F01F02B14696E7554AD2F88A
:10E97000042312067FF559AE00221A60196800912F
:10E98000196E0098012903F1600346F080067FF4B8
:10E9900050AE1A601B6801934FF0A042019BD2F861
:10E9A0002015494B0291C2F82015D3F82025039277
:10E9B000C3F8202546F000463CE6424AD2F804233C
:10E9C00051067FF52DAE00221A601B680093009B54
:10E9D00046F0400624E63B4AD2F8042390067FF531
:10E9E0001AAE00221A601B680093009B46F02006B6
:10E9F00011E6344AD2F80423D4067FF507AE00228C
:10EA00001A601B680093009B46F01006FEE52D4A35
:10EA1000D2F8042315077FF5F4AD00221A601B68B5
:10EA20000093009B46F00806EBE5264AD2F8042343
:10EA300057077FF5E1AD00221A601B680093009B29
:10EA400046F00406D8E51F4AD2F8042392077FF562
:10EA5000CEAD00221A601B680093009B46F00206B0
:10EA6000C5E51849D1F8046316F001063FF4BAADC4
:10EA7000136013680093009BB4E502297FF4F5AEA0
:10EA8000C047F2E602297FF43AAFC04737E70229D0
:10EA90007FF455AEC04752E602297FF49BAEC047D3
:10EAA00098E601297FF496AEF9E701297FF4DDAEFF
:10EAB000E6E701297FF443AEECE701297FF41FAFBD
:10EAC000E3E700BF0060004000030050D0E90223EC
:10EAD000D1E90201994208BF90422CBF01200020D9
:10EAE000704700BF2DE9F04F87B0064600F0C6FB27
:10EAF00040B1B04AD2E9003113F1807341F1000115
:10EB0000C2E900310021304600F0D4FBAA4C60B3CA
:10EB1000236853B3A94B25681B7823B31DB3A848BA
:10EB200000F0D8FBA34BA749D3E90023D1E9008922
:10EB3000121843F100034B4508BF424503D212F1BE
:10EB4000807243F10003D5E902018B4208BF824283
:10EB500080F05C81013108BFB0F1FF3F03D09A48DB
:10EB6000294600F0D7FB002323600121304600F046
:10EB7000A1FB002840F02E81944805A900F04CFC30
:10EB800078B3924D4FF0FF384FF0FF390BE0002B78
:10EB900000F0968005A9284600F06EFC05A92846DD
:10EBA00000F03AFCE8B10378012B11D0022BEED132
:10EBB000854F384600F0C2FB30B1C0E902893846C3
:10EBC00000F0BCFB0028F8D17C4B01221A70E1E771
:10EBD00041682368994200F0B7807B4800F0B8FB99
:10EBE000D8E7DFF8E481764FDFF8C891404600F0BF
:10EBF000ABFB002859D0D0E90223591C08BFB2F161
:10EC0000FF3F59D0216891B12168D1E902018B42BF
:10EC100008BF82424DD22368D3E90223013308BFE3
:10EC2000B2F1FF3F03D02168404600F073FB40463D
:10EC300000F084FB05463846AA68EB68039202930D
:10EC400000F048FBD9E900AB5E4BD3E900231AEB97
:10EC5000000A4BF1000B9B4508BF9245DDE90232EB
:10EC600003D21AF1807A4BF1000BB2EB0A0163EB8D
:10EC70000B0301930091DDE90001012871F100030C
:10EC80002BDBB0F5D40F59D24FF4160300213846D0
:10EC900000F06EFA00284BD00D2822D00023404609
:10ECA000236000F051FB0028A5D12368002B00F061
:10ECB000A98007B0BDE8F08F404600F03FFB95E724
:10ECC0004168D1E90223013308BFB2F1FF3F3FF4AD
:10ECD00061AF3D4800F01EFB5CE70021384600F0C4
:10ECE000DDFA364B1B78002BD8D0384600F0F2FA0C
:10ECF000D9E900233349D1E900AB121843F10003ED
:10ED00005B4508BF524503D212F1807243F1000304
:10ED1000D5E902018B4208BF82421CD2013108BFF3
:10ED2000B0F1FF3FBAD02946404600F0F3FAB5E70C
:10ED3000236863B1256007B0BDE8F08F384600F066
:10ED4000C9FA234A02449FE70023236022E73046A2
:10ED500000F0E0F9EEE70020FEF758F82B692BB938
:10ED60004FF0FF324FF0FF33C5E902230020FEF7DA
:10ED700055F8D5E9053098470020FEF747F82B698C
:10ED80009BB1D5E902014A1C08BFB0F1FF3F0CD08E
:10ED9000C01841F10001C5E902010020FEF73EF86C
:10EDA0002946404600F0B6FA78E70020FEF736F82C
:10EDB00074E700BFF8190020681A0020001A00202C
:10EDC00028120020601A0020506F02001412002048
:10EDD000FFFF69002448254D00F07CFA244BD3E95D
:10EDE0000089D5E9002318EB000849F1000999458D
:10EDF00008BF904503D218F1807849F10009C5E9B0
:10EE00000089B9E6304600F089F952E70020FDF7A5
:10EE1000FDFF2B692BB94FF0FF324FF0FF33C5E9EF
:10EE200002230020FDF7FAFFD5E9053098470020BE
:10EE3000FDF7ECFF2B699BB1D5E902014F1C08BF20
:10EE4000B0F1FF3F0CD0C01841F10001C5E902014B
:10EE50000020FDF7E3FF0748294600F05BFA82E651
:10EE60000020FDF7DBFF7EE628120020601A00205C
:10EE7000F8190020506F020030B583B00624144901
:10EE800014488DF80640002508235822ADF8045098
:10EE900000F06CFA044610B1204603B030BD0E4AB3
:10EEA0000E4801A900F0C8F804460028F4D10B4828
:10EEB000012100F0D9F901231946094A074800F059
:10EEC00031F9084B012220461A7003B030BD00BF53
:10EED000041A002014120020E5EA01002812002084
:10EEE000FFFF7F00001A00208AB130B4A1F10101B8
:10EEF0000368B1FA81F14FF0FF344FF0FF35490953
:10EF0000C3E90412C3E90245002030BC7047072062
:10EF1000704700BF2DE97043044682B000201646BA
:10EF20000D46FDF773FFD4E90223013308BFB2F1A8
:10EF3000FF3F06D00020FDF771FF002002B0BDE8C2
:10EF400070831D4800F0C6F91C4B1D49D3E900230E
:10EF5000D1E90089121843F100034B4508BF42452F
:10EF600024D3521943F10003C4E902230020FDF722
:10EF700055FF2369A66103B12561124801A900F07C
:10EF80000DFA78B100254460057001A90D4800F024
:10EF900033FA0028D2D0084800F0A0F9284602B081
:10EFA000BDE87083042002B0BDE8708312F1807266
:10EFB00043F10003D5E700BF28120020F819002014
:10EFC000601A00201412002010B5044682B0002000
:10EFD000FDF71CFFD4E90223013308BFB2F1FF3F64
:10EFE0001AD04FF0FF324FF0FF330020C4E9022364
:10EFF000FDF714FF0E4801A900F0D0F948B1012334
:10F000004460037001A90A4800F0F6F950B902B053
:10F0100010BD042002B010BD0020FDF7FFFE00204F
:10F0200002B010BD034800F059F9002002B010BD35
:10F03000141200202812002070B52D4B44792D4E5B
:10F0400003EBC40546F824202D79002D3DD102683C
:10F050000C88C2F8084590F904208978002A20DB42
:10F0600002F1604202F561424901C9B282F800131F
:10F0700090F90420002A07DB1F4C02F01F05012134
:10F080005209A94044F8221042791C4943F8320041
:10F0900003EBC2034A880121022A197109D8002012
:10F0A00070BD174C02F00F0249011444C9B2217619
:10F0B000DEE7144B14481549C01AC008000440F09C
:10F0C0000300FDF705FB002070BD0C4B5B88012B96
:10F0D00001D8082070BD0B4B0B480D49C01AC00861
:10F0E000000440F00200FDF7F3FA082070BD00BFF5
:10F0F0006C1A0020741A002000E100E0DC120020ED
:10F10000FCEC00E094730200BC730200806F02000C
:10F110005C6F0200036801221A60704703680122D5
:10F120005A607047F0B404684FF480358D40C4F8DD
:10F130000853066801F15004C6F84853A400066855
:10F14000A4B20027375182B036590468019601F500
:10F15000A87122F07F42019E44F821200268C2F883
:10F16000445313B10368C3F8045302B0F0BC7047B2
:10F170002DE9F04704464FF4803600688E40C0F811
:10F1800048632068C0F80863206800EB81058A4660
:10F19000D0F80415D5F84005C5F840150AF150051A
:10F1A000AD002768ADB24FF0000847F8058082B087
:10F1B000401A7F59009720F07F40012822F07F47B6
:10F1C0009946009A41D02268D2F80455C2F84463A7
:10F1D0007A1B22F07F42012A0AF5A87125D0226805
:10F1E00042F821702068D0F804557A1BC9F1FF134A
:10F1F000013A03F57F4322F07F42934211D342B19B
:10F20000C0F8446323680020C3F8046302B0BDE87B
:10F21000F087013740F821702068D0F804359D420E
:10F22000EED00D2002B0BDE8F08720680D4B01370D
:10F2300040F8217043F001034FF480609847206844
:10F24000D0F804359D42DBD0EBE7064A4FF48060EE
:10F2500042F001029047226842F80580525901921B
:10F26000019AB0E7A06F020002680223C2F844339B
:10F2700011B10268C2F80433704700BF0368D3F8C5
:10F28000040100B97047002282B0C3F80421D3F80A
:10F2900004310193019B012002B0704702684FF4D2
:10F2A000803303FA01F1C2F848130368C3F8081366
:10F2B000704700BF50318900036889B2585800B9BF
:10F2C000704700225A5082B05B580193019B012085
:10F2D00002B070470368D3F80405704790F9043012
:10F2E000002B09DB5A090548403203F01F030121B6
:10F2F00001FA03F340F82230704700BF00E100E05C
:10F30000024A034B10681B68184700BF6C1A0020A4
:10F31000741A002070B54468064620680D4618B976
:10F3200008E02468206828B1B36829469847002877
:10F33000F7D120682860256070BD00BF4368186859
:10F3400008B102681A60704743681868704700BFC8
:10F350004368186818B908E00346006828B181427C
:10F36000FAD10A681A6001207047704799B110B449
:10F37000B2FBF3F403FB1424A4B244B9C0E90014B3
:10F3800084608281C38120465DF8044B7047092068
:10F390005DF8044B70470E20704700BF30B482B058
:10F3A00050E8013F9DB2C48925448489A54228BF05
:10F3B0002D1B0489A54202BFBFF32F8F002207E057
:10F3C000C5EA030540E80154002CE9D14FF00102E1
:10F3D0008DF803200193019B9DF803200B602AB157
:10F3E0000B880068184402B030BC704702F0FF037D
:10F3F000184602B030BC70470A884B889A4201D048
:10F400000020704750E8012FC2EA024240E8012381
:10F41000002BF7D10120704730B482B050E8023F92
:10F420001FFAA3F5C488A54202BFBFF32F8F0022A5
:10F430000DE0C48925448489A54228BF2D1BC3EA59
:10F44000054540E80254002CE8D14FF001028DF848
:10F4500003200193019B9DF803200B602AB14B8888
:10F460000068184402B030BC704702F0FF03184631
:10F4700002B030BC704700BF0A884B889A4201D066
:10F480000020704750E8022FC2EA224240E80223DF
:10F49000002BF7D10120704708B500F09DF8044813
:10F4A0000421FDF7A1FA034B01225A7108BD00BFE8
:10F4B0001474020030120020022904D0032909D05C
:10F4C000012904D07047054B01221A707047044B84
:10F4D00019707047014B00221A707047041B0020FE
:10F4E000481B0020704700BF08B5044800F0F4FB3B
:10F4F00000B908BDBDE80840FDF72EBCC46F02008E
:10F5000030B5044683B00D4601F002F90028FBD166
:10F51000044B0093044A29462046402304F03EF859
:10F5200003B030BD75F50100081B0020083808B590
:10F53000062805D8DFE800F00911150404040500C9
:10F5400008BDBDE8084000F0C7BA02F0D3FE0028AD
:10F55000F6D1BDE8084000F0BDBABDE8084000F0B3
:10F56000FBBA02F0D1FE0028EAD1BDE8084000F065
:10F57000B5BA00BF154B1B7833B32DE9F047002512
:10F58000134CDFF850A088461746A9467E1B402E34
:10F5900028BF4026324608EB0501504684F800900B
:10F5A00005F058F868B9237833B901F0B1F80028AC
:10F5B000FBD12378002BF8D03544AF42E6D8BDE824
:10F5C000F087FDF7C9FBEEE7704700BF041B002082
:10F5D000481B0020C46F020010B51F4C237803B1F4
:10F5E00010BD01F013F9F8B101F066F948B305F068
:10F5F000B1F81A4800F0AEF930F0080328D11848E5
:10F6000000F0DCFAD0B900F04DFAA0B902F07CFEAF
:10F6100038B901F07DF80028FBD102F075FE002812
:10F62000F7D00123237010BD01F0F6F80028DBD0DD
:10F63000FDF792FBD8E7FDF78FFBE7E7FDF78CFBC3
:10F64000E1E701F00BF901F037F90028FBD0CEE734
:10F65000FDF782FBD3E700BF781A0020E86F0200B5
:10F66000C46F020008B5044B1B781BB101F050F8C1
:10F670000028FBD108BD00BF781A002030B583B048
:10F68000124801A9FFF78AFEF0B1114D044628681F
:10F6900020600020FDF7BAFB0E4B0F481B88026864
:10F6A00001339B1AE3800021FDF7C2FBA0800020FC
:10F6B000FDF7B4FB01A90548FFF79EFE074B1B6849
:10F6C00001460BB12846984703B030BD44120020D4
:10F6D00040700200EC1B0020081D0020501B002081
:10F6E00030B50378052B83B0044625D0002B30D1EC
:10F6F0002B4B1D683DB12B6860889B6898472B6831
:10F700005D68002DF7D1274D0020FDF77FFB2B68AA
:10F7100013B9254B62881A8001212248FDF796FB18
:10F720000020FDF77BFB214B1B6813B12046012114
:10F7300098472B6803B030BD1D4BD3F88424D3F811
:10F74000803413F0FF0F04D11A4BD2B2052A08BF40
:10F750001C46194801A9FFF721FE05460028E9D0FB
:10F76000236803600020FDF751FB0F4B0D481B88F9
:10F77000026801339B1AEB800021FDF759FBA8803A
:10F780000020FDF74BFB01A90B48FFF735FE074BA7
:10F790001B680146002BCDD02046984703B030BDF2
:10F7A000001D0020081D0020EC1B0020501B002025
:10F7B000007002403C7002004412002070B5012825
:10F7C00082B006D0022804462AD0002831D002B0E8
:10F7D00070BD2B4801A9FFF7E1FD04460028F6D0D3
:10F7E000284D286820600020FDF710FB264B274895
:10F7F0001B88026801339B1AE3800021FDF718FB88
:10F80000A0800020FDF70AFB01A91D48FFF7F4FDC9
:10F810001F4B1B680146002BD9D028469847D6E7D6
:10F82000174801A9FFF7BAFD04460028CFD0194DAB
:10F83000D7E7134801A9FFF7B1FD05460028C6D058
:10F84000154E306828602046FDF7E0FA0E4B0F4851
:10F850001B88026801339B1AEB802146FDF7E8FA0A
:10F86000A8802046FDF7DAFA01A90548FFF7C4FD94
:10F87000074B1B680146002BA9D030469847A6E7E6
:10F880004412002034700200EC1B0020081D0020F0
:10F89000501B002038700200307002002DE9F04F3C
:10F8A00087B0002504460F4690469946029500E031
:10F8B00001356268012356682146002202A8B0473C
:10F8C0000028F5D18DF80600049065B38246834682
:10F8D0000AE09DF806306668023B7668B0479DF8FE
:10F8E00006309B445D451ED9626801235668214657
:10F8F0000DF1060204A8B04762680123566821464C
:10F900000DF1070204A8B0479DF80730BB424FF045
:10F910000002214604A8DCD1D04508D00AF1010A32
:10F920005FFA8AFAD5E7052007B0BDE8F08F109A94
:10F930009DF80630136089F8003089F8017061681D
:10F94000023B4D6809F102022146A847002007B09A
:10F95000BDE8F08F2DE9F047484982B005460823FD
:10F9600047484FF48472FFF701FD002874D14548E1
:10F9700002F0C2F8044618B1204602B0BDE8F08794
:10F98000414A4249424B14700C604822214641488A
:10F990001C6005F065FB40482146482205F060FBED
:10F9A000002D63D095E807003C4B83E8070000205A
:10F9B00004F0F8FE002854D1DFF8E4E09EF80830A7
:10F9C000002B58D0013BDBB20EF10C024FF00309C3
:10F9D000DEF80480304D2F4F19FB03290EF1090C7E
:10F9E0009CF80140CCB19CF802200CF101031344B7
:10F9F000013C53FA84F4624412F8013B03F00F0116
:10FA00001B0605EBC10607EBC10A18D445F831E027
:10FA10009442D8F800307360EED10CF1030CCC4561
:10FA2000DED10B238DF804301D48D8F8003001A931
:10FA30009847044600289FD002F0F2F89CE747F868
:10FA400031E09442D8F80030CAF80430D4D10CF137
:10FA5000030CCC45C4D1E4E70324204602B0BDE842
:10FA6000F0878528A8D0FDF777F9A5E70B4BC3E908
:10FA700000551D729BE7DEF80480D2E7F01B0020E2
:10FA800044120020E1F601000C1D0020F81C0020AB
:10FA9000FC1C00205C1B0020A41B0020501B00202D
:10FAA0002471020010B502F01DFC68B102F022FCC6
:10FAB000044648B9064804F089FE034628B1FDF71C
:10FAC0004BF92346184610BD0823184610BD00BF49
:10FAD0002C70020002F0AEB802F0D6B94FF08043AD
:10FAE00003E0D3F83824D1072BD5D3F83824920774
:10FAF000F7D530B583B0134801A9FFF74FFC044692
:10FB0000E8B1114D286820600020FDF77FF90F4B08
:10FB10000F481B88026801339B1AE3800021FDF720
:10FB200087F9A0800020FDF779F901A90548FFF7C2
:10FB300063FC084B1B6801460BB12846984703B08D
:10FB400030BD70474412002044700200EC1B0020BE
:10FB5000081D0020501B002010B582B082231348DE
:10FB60008DF8003001A9FFF719FCE8B104460098B0
:10FB700020600020FDF74AF90D4B0E481B880268F3
:10FB800001339B1AE3800021FDF752F9A080002089
:10FB9000FDF744F901A90548FFF72EFC064B1B6849
:10FBA00001460BB16846984702B010BD44120020D0
:10FBB000EC1B0020081D0020501B00202DE9F04305
:10FBC00090F8088083B0B8F1000F6CD008F1FF39CD
:10FBD0005FFA89F300F10C024FF0030900F1090507
:10FBE000DFF8E8C0DFF8ECE019FB032929464F787D
:10FBF00000239F4201EB03021AD08C781657125D46
:10FC0000002E02F00F0408DB5CF834200133002AD8
:10FC1000EFD0112003B0BDE8F08302F00F020133F2
:10FC20005EF83220002AF4D19F4201EB0302E4D1B6
:10FC300003314945DBD14FF0000E244FDFF894C06B
:10FC4000724602EB42022A44537833B300210B463A
:10FC50000AE047F8340043681B68C8F80430547859
:10FC60000131CBB29C4216D9947813441E571B5DC8
:10FC7000002E03F00F0407EBC4080CEBC409E8DA0C
:10FC80004CF8340043681B68C9F8043054780131DB
:10FC9000CBB29C42E8D890F808800EF1010E5FFAD2
:10FCA0008EF24245CDD30A4A13681BB11A68136815
:10FCB000002BFBD1106043680B228DF804201B68D9
:10FCC00001A9984703B0BDE8F08300BFA41B002042
:10FCD000F81C00205C1B002030B5474C236883B023
:10FCE000002B00F08580054603E01C682368002B8C
:10FCF0007ED0AB42F9D16B680C228DF804201B68D2
:10FD000001A928469847002873D12A683B4B1268FE
:10FD100022602A6810601A6895429A6808BFC3E991
:10FD20000000954204BF0022C3E902221A699542ED
:10FD300004BF0022C3E904229A69954204BF00224D
:10FD4000C3E906221A6A954204BF0022C3E90822C9
:10FD50009A6A954204BF0022C3E90A221A6B9542AF
:10FD600004BF0022C3E90C229A6B954204BF002213
:10FD7000C3E90E221A6C954204BF0022C3E9102287
:10FD80001F4B1A68954204BF0022C3E900229A68FB
:10FD9000954204BF0022C3E902221A69954204BFBA
:10FDA0000022C3E904229A69954204BF0022C3E9F4
:10FDB00006221A6A954204BF0022C3E908229A6A01
:10FDC000954204BF0022C3E90A221A6B954204BF80
:10FDD0000022C3E90C229A6B954204BF0022C3E9BA
:10FDE0000E221A6C954204D10022C3E9102200E0D1
:10FDF000052003B030BD00BFF81C00205C1B0020B4
:10FE0000A41B0020024B1878003818BF012070474F
:10FE1000041D0020030710B5044604D52046BDE8A4
:10FE2000104002F0E5BB02F06FFE204602F012FE29
:10FE30002046BDE8104002F0DBBB00BF02F042BC30
:10FE4000014B1868704700BFF81C0020F0B40E4B3F
:10FE50001F688FB13E7A96B100231C463A4602E0F5
:10FE6000DCB2A6420BD9557A854203F1010302F1B7
:10FE70000302F5D101B10C703846F0BC70473B6805
:10FE80001F68002FE6D1F7E7F81C002043681146F1
:10FE90001B68184700F00F03082B0AD802064CBF56
:10FEA000054A064A02EBC303186810B143681B6891
:10FEB00018471020704700BF5C1B0020A41B0020C7
:10FEC00038B5094B1C6864B1054602E023681C681C
:10FED0003CB1636829461B68204698470628F5D040
:10FEE00038BD062038BD00BFF81C002038B50D46CF
:10FEF000044602F06DFB18B1054B1B78022B01D0B4
:10FF0000082038BD29462046BDE8384002F0A6BC8E
:10FF10000C1D002038B50D46044602F059FB18B1FF
:10FF2000054B1B78022B01D0082038BD29462046FE
:10FF3000BDE8384002F024BD0C1D002070B54368B8
:10FF40009B6882B006460C46154623B198470628A2
:10FF500001D002B070BD4DBB337AA3422BD9093614
:10FF600004EB440174186678EEB12B46324606E085
:10FF7000013502F03DFBEBB29E4214D962789A4201
:10FF800016D9A3786219D05C0307F1D4019002F06E
:10FF9000BBFD019802F05EFD0135019802F028FBDF
:10FFA000EBB2B342EAD3002002B070BD0720D0E725
:10FFB00000231B78FFDE6B78FFDE00BF43681B6900
:10FFC00003B11847184670472DE9F0432B4B1F68C3
:10FFD00083B0002F49D097F80880B8F1000F40D0C7
:10FFE0000026344607F1090505E00136F4B2A045C4
:10FFF00005F1030535D97B689B682BB100222146AA
:020000022000DC
:10000000384698470628F0D13B7AA34230D995F874
:100010000190B9F1000FE8D0002423464A4606E0DB
:10002000013402F0E5FAE3B29945DED96A789342E9
:1000300021D2AB782A19D05C0307F1D4019002F0E9
:1000400063FD019802F006FD0134019802F0D0FA38
:10005000E3B24B45EAD30136F4B2A04505F10305FE
:10006000C9D83B681F68002FB5D103B0BDE8F08345
:1000700000235B78FFDE00231B78FFDEF81C0020E6
:100080002DE9F8431E4B1F68002F34D097F80890D5
:10009000B9F1000F2BD04FF00008454607F10904D5
:1000A0007B68DB6813B12946384698473B7AAB42F8
:1000B00023D966789EB100252B46324693420BD257
:1000C000A37862190135D05C02F0FCFAEBB29E42D3
:1000D00005D962789342F3D300231B78FFDE08F141
:1000E00001085FFA88F5A94504F10304D8D83B68F4
:1000F0001F68002FCAD1BDE8F88300235B78FFDEBC
:10010000F81C002070B503780446852B00F2BF80F0
:10011000DFE813F00002B201BE003A026602E3001B
:10012000EA00BD00040117012A01BD00BD00BD00A9
:10013000BD003D01BD00BD00BD00BD00BD00BD0056
:10014000BD00BD00BD00BD00BD00BD00BD00BD00C7
:10015000BD00BD00BD00BD00BD00BD00BD00BD00B7
:10016000BD00BD00BD00BD00BD00BD00BD00BD00A7
:10017000BD00BD00BD00BD00BD00BD00BD00BD0097
:10018000BD00BD00BD00BD00BD00BD00BD00BD0087
:10019000BD00BD00BD00BD00BD00BD00BD00BD0077
:1001A000BD00BD00BD00BD00BD00BD00BD00BD0067
:1001B000BD00BD00BD00BD00BD00BD00BD00BD0057
:1001C000BD00BD00BD00BD00BD00BD00BD00BD0047
:1001D000BD00BD00BD00BD00BD00BD00BD00BD0037
:1001E000BD00BD00BD00BD00BD00BD00BD00BD0027
:1001F000BD00BD00BD00BD00BD00BD00BD00BD0017
:10020000BD00BD00BD00BD00BD00BD00BD00BD0006
:10021000BD00BD005101860060011C02E301E30046
:100220008C4B8D49D3E9000290478C4B1C684CB134
:10023000894D636820461B682946984723681C68D7
:10024000002CF6D1864C63680BB10D209847FFF760
:1002500017FF02F053FD834B1B68002B00F0FD815C
:100260000120814D01F024FF2A78931EDBB2062B7A
:1002700000F215827D49CB5C13B100F053FB2A7864
:10028000022A40F00C8202F079F901232B7070BD34
:10029000754D2A78931EDBB2062B00F2CD8173498F
:1002A000CB5C13B100F03EFB2A78022A40F0C481F7
:1002B00002F064F96A4B5B6803222A700BB10220DA
:1002C0009847664B1D6845B16B6828461B682146F8
:1002D00098472B681D68002DF6D15E4B2146D3E967
:1002E0000002BDE87040104790F902308278002B80
:1002F000B4BF5F4B574B02F00F0203EBC203D3E9CD
:100300000002214690470028C1D0A0780207BED045
:100310000307BCD4BDE8704002F090BB504B5B6853
:100320000BB1082098474D4B1D68002DAFD06B686E
:1003300028461B68214698472B681D68002DF6D17A
:10034000A5E7474B5B680BB109209847434B1D68F5
:10035000002D9CD06B6828461B68214698472B6867
:100360001D68002DF6D192E73D4B5B680BB10A206A
:1003700098473A4B1D68002D89D06B6828461B684A
:10038000214698472B681D68002DF6D17FE7344B36
:100390005B680BB10F209847304B1D68002D3FF470
:1003A00076AF6B6828461B68214698472B681D6806
:1003B000002DF6D16BE72C4C2378062B00F04F81F3
:1003C00003F0FD03052B7FF462AF02F0E1F8022396
:1003D000237070BD244DFFF753FE01F08FFE2A7885
:1003E000931EDBB2062B31D82049CB5C13B100F051
:1003F00099FA2A78022A29D102F0C0F8174B1C6812
:1004000000232B704CB11B4E636820461B6831469D
:10041000984723681C68002CF6D10E4B1549D3E988
:10042000000290470E4B5B680BB10E2098472B786B
:10043000023BDBB2062B3FF62AAF0C4AD35C002B03
:100440003FF425AFBDE8704000F06CBA082AD5D162
:10045000D2E700BFA41B002048700200F81C002057
:10046000501B0020FC1C00200C1D002024700200EA
:100470005C1B00204C7002009C4DFFF701FE02F057
:1004800033FC2A78931EDBB2062B00F2D980984900
:10049000CB5C002B00F0D480022A03D0082A01D0C4
:1004A00002F076F8934B5B6802222A700BB10120B0
:1004B0009847914B2146D3E9000290478F4B1D6826
:1004C000002D3FF4E4AE6B6828461B682146984730
:1004D0002B681D68002DF6D170BD844D2B78032B41
:1004E00000F0C68002F012F800283FF4D0AE2A785F
:1004F000931EDBB2062B40F2EB80814800F0E4F95A
:100500002A78022A01D0082A01D102F037F80623FE
:100510002B7070BD754B1B78032B00F0A580082B4A
:1005200000F0A280734B5B680BB100209847754BBD
:100530001D68002D3FF4ABAE6B6828461B68214652
:1005400098472B685D68002DF6D170BD674D2B78FC
:10055000032B7FF49CAE01F0E5FE00283FF497AE3C
:100560002A78931EDBB2062B00F2BB806049CB5C7D
:1005700013B100F0D7F92A78022A40F0B28001F0D6
:10058000FDFF04232B7070BD584D2A78082A5CD0DB
:10059000931EDBB2062B00F286805549CB5C002B04
:1005A00000F08180022A00F0878005232B70514BD8
:1005B0005B680BB1032098474F4B2146D3E90002FB
:1005C00090474E4B1D68002D3FF461AE6B68284686
:1005D0001B68214698472B681D68002DF6D170BD19
:1005E000444B5B680BB103209847434B4649D3E922
:1005F00000029047414B1C684CB1434D6368204654
:100600001B682946984723681C68002CF6D1374D93
:100610002B78062B1ED0082B0BD09A1ED2B2062A9E
:100620004DD833498A5C002A49D0022B01D001F011
:10063000AFFF02232B7070BD082A7FF43BAE37E674
:100640002F4800F041F92A7826E702232B7001F0A9
:10065000A9FFACE707232B7070BD207A01E601F0FB
:1006600097FF0823237070BD2848FFF74BFD59E71B
:1006700001F058FE00283FF435AF2A78931EDBB214
:10068000062B2BD81A49CB5C13B100F04BF92A7812
:10069000022A23D101F072FF04232B7022E7082ADB
:1006A0007FF4F3ADEFE5164800F00EF92B78022B3E
:1006B00002D0082B7FF479AF01F060FF75E7104896
:1006C00000F002F92B78022BB3D0082BB1D0AEE7A3
:1006D0000749CB5C002B7FF414AF0EE7082ADBD16F
:1006E000D8E7082A7FF44DAF49E700BF0C1D002072
:1006F00024700200501B0020A41B0020F81C0020C6
:100700003C120020FC1C00205470020050700200BB
:1007100070B5284E82B03468002301930CB3A588CD
:10072000A5B1E388B3F5006F3ABF5A1C92B201221B
:1007300005F1FF3528BF002301A8A580E280ADF8B0
:100740000630FFF7DFFC012002B070BD2046FFF746
:10075000D9FC19491948FEF78FFE0120356002B017
:1007600070BD15491548FEF757FE04463060002855
:10077000D5D1134B1B6813B9184602B070BDFCF7F6
:1007800045FB104A0E481388B3F5006F35BF5C1C5B
:100790002346A4B2012401211480ADF80630FCF7F1
:1007A00071FB0020FCF73AFB01A8FFF7ABFC01202E
:1007B000CAE700BF101D00204C1B0020441200207F
:1007C000081D0020EC1B002010B568B90E4CA36872
:1007D000012262703BB1D3E900230020A260984758
:1007E000A368002BF7D110BD0128FCD1064C23696A
:1007F000A070002BF7D0D3E9002301202261984795
:100800002369002BF7D110BD141D0020014B18786F
:10081000704700BF141D002010B50D4C237882B026
:1008200043B185200B4BD3F800340BB10123A370E7
:1008300002B010BD08486360A3602361E36002F06A
:1008400007FE019002F010FE012301982370E9E7F2
:10085000141D002000000140C907020038B5154DE5
:10086000AB78044673B110B143680120984700206B
:10087000FCF7CCFAEB680133EB600020BDE83840B0
:10088000FCF7CCBA03F0FF00FCF7C0FA64B12A69A8
:1008900042B1944208D0134601E09C4204D01B6848
:1008A000002BFAD122602C61EB68002BE2D102F020
:1008B000F1FDDFE7141D00204FF08043D3F818044A
:1008C000C0F30040704700BF38B5154D6B78044643
:1008D00073B110B14368002098470020FCF796FAE6
:1008E0006B6801336B600020BDE83840FCF796BAB6
:1008F00003F0FF00FCF78AFA64B1AA6842B194429F
:1009000008D0134601E09C4204D01B68002BFAD1AA
:100910002260AC606B68002BE2D102F0D3FDDFE710
:10092000141D002038B50B4C0020FCF76FFA6368EB
:10093000013B6360656825B1BDE838400020FCF7E5
:100940006DBA02F0D1FD65700020BDE83840FCF7BB
:1009500065BA00BF141D002030B44C68A34208D90A
:10096000002545600968016093420CD0002030BC2E
:10097000704743600D6805600868E41A18449342A4
:10098000C1E90004F2D1201E18BF012030BC70471D
:1009900010B4D1E900439A4228BF1A46C0E9004288
:1009A000D1E90030801A1344C1E90030003818BF83
:1009B00001205DF8044B70474B689A4228BF1A46E5
:1009C00062B10B68C0E90032D1E90030801A1344EB
:1009D000C1E90030101E18BF012070471346F1E72F
:1009E00010B5094B09491A68094C82B0002301204F
:1009F0008DF804008DF80730ADF8053001A823709C
:100A00000B70904702B010BD541E0020581E0020ED
:100A1000281D0020704700BF00B583B00D4B0E4964
:100A200000228DF80420D3F82025ADF80620D3F855
:100A3000C0040A4A0968136800280CBF4FF480708C
:100A40004FF00120034301A81360884703B05DF80D
:100A500004FB00BF00700240541E0020301D002027
:100A6000F8B54B680B4F934228BF13461D460C4602
:100A700006461A460968384604F058FAC6E9007571
:100A8000D4E90030401B2B44C4E90030003818BFC3
:100A90000120F8BD5C1E0020F8B54B68934228BFCA
:100AA00013460D461C4606465BB933607460D5E9B3
:100AB0000032121B2344C5E90032201E18BF01205A
:100AC000F8BD044F096838461A4604F02FFA37601B
:100AD000ECE700BF5C1E002010B5184B1B68082B0C
:100AE00082B002D1164B00221A60164B16499A7B2F
:100AF0000020032A08700AD01C687CB1134B012225
:100B00001A60BFF36F8FBFF34F8F02B010BD6FF449
:100B100080310F48FCF7D8FE02B010BD6FF4803171
:100B20000B48FCF7D1FE0B4BADF8064006221B68C4
:100B30008DF8042001A8984702B010BD30010010C4
:100B40001C7C0240341D0020291D00204C700240F6
:100B50002C1D0020541E002010B5274BD3F8004454
:100B6000C3F8004482B0BFF36F8FBFF34F8FBFF362
:100B70006F8FBFF34F8FE1050ED5204B20491A68C8
:100B8000022000238DF80730ADF805308DF8040001
:100B9000012301A80B709047A2050DD5174B1849EA
:100BA0001A68032000238DF804008DF80730ADF893
:100BB000053001A80B70904763051AD5104B1A78C1
:100BC000BAB10D4C0F48012100221A70C4F8081563
:100BD0000160BFF36F8FBFF34F8F084BADF8052057
:100BE00004211B688DF807208DF804100DEB01001F
:100BF000984702B010BD00BF00700240541E002094
:100C0000281D00205870024070B53E4B93F900201B
:100C10001C78002A82B01ADB3B4B3C491D680A68ED
:100C200004F00F031033012000FA03F31A432B42A0
:100C30000A600AD1364B8DF8070006221B688DF832
:100C400006408DF8042001A8984702B070BD04F05A
:100C50000F01304B2D4833F81130026803F1804307
:100C600003F51C3301258D401E682A4309B202603A
:100C7000DEB100221A60BFF36F8FBFF34F8F264B98
:100C8000802C1B6822D0082B08BF244B244808BFA7
:100C90001A60244B03EB01120026927B0670032A94
:100CA0004FEA011129D05B583BB3174B1B682B400F
:100CB000CBD117498DF8073006220B688DF8064016
:100CC0008DF8042001A8984702B070BD082B08BF1A
:100CD000124B134908BF1A60134B93F89E20002053
:100CE000032A087003D0D3F89030002BDDD16FF0C9
:100CF00001010548FCF7E8FDD7E7E9430248FCF7A6
:100D0000E3FDD2E7581E00202C1D0020301D0020DE
:100D1000541E00207C700200300100101C7C024038
:100D2000291D0020C41D0020341D00202DE9F04F96
:100D3000DFF824B2DFF82892DBF80040D9F8003061
:100D4000234089B000F0988013F0012400F09780D0
:100D500094FAA4F4002C00F09780B4FA84F70F2FD3
:100D60003D461DD8DFF8FCB10FFA87FA0BEB0A16E7
:100D70004FEA0A1AB2895BF80A30716806A89847E8
:100D800067F07F0801233C464FFA88F803FA07F71B
:100D900008B94BF80A00FB43019305F008072AE065
:100DA0000123A7F1100503FA07F7634B5FFA85F8F3
:100DB00003EB0816FB43019315F0080344464FFA72
:100DC00085FA029369D145460022029205F5947393
:100DD0005A4A52F82330B28971683768039306A8DB
:100DE000B847069A1AB1079A039B93427BD8029F91
:100DF000D04600B93060524B1B68082B02D1514BD2
:100E000082221A60D9F800200198B368079902403D
:100E10000B44C9F800204C4AB360B8F1000F4FF002
:100E200001031370069B47DB002F4ED0434AAD00F1
:100E3000C2F8A0372823C2F8A4172B44DBB203F171
:100E4000804303F51C3301221A60BFF36F8FBFF399
:100E50004F8F3E4A3E4B3F4913EA280838BF904621
:100E600038F8142002F1804202F51C3201E00B68D0
:100E700013B91368002BFAD009B0BDE8F08F93FACC
:100E8000A3F4002C7FF469AF4FF0100A4FF0FF334A
:100E9000294E0193D046254696E7284BD3F8C03417
:100EA000DA0347D53568B2897168029F06A8002326
:100EB000A847D04625469CE777B3204AAD00C2F844
:100EC000A0360423C2F8A416B7E705EB850292000A
:100ED00002F1804202F51C32AD00C2F8003728232F
:100EE000C2F80417A9E702240199B4731A48FCF761
:100EF000EBFC1A4B8DF8174006221B688DF8168004
:100F00008DF8142005A89847DBF80040D9F8003088
:100F100023407FF419AFAFE705EB8502920002F1A1
:100F2000804202F51C32AD00C2F800360423C2F83C
:100F3000041682E745464EE7341D0020007002404B
:100F4000300100101C7C0240291D00209C70020012
:100F50007C700200007102402C1D0020541E0020F5
:100F6000301D0020C41D002010B5184B1B68082B35
:100F700082B002D1164B00221A60164B164C93F821
:100F80005E200021032A217005D01B6D6BB1FFF795
:100F9000CDFE02B010BD11486FF40011FCF794FCB7
:100FA0002378002BF3D002B010BD6FF400110B4872
:100FB000FCF78AFC0A4B062105221B688DF80410F9
:100FC000ADF8062001A89847EAE700BF30010010FD
:100FD0001C7C0240341D0020291D00202C1D0020F7
:100FE000541E0020134B1B68082B02D1124B002209
:100FF0001A60124B124993F88E200020032A0870C1
:1010000002D0D3F8803003B1704700B56FF0807123
:1010100083B00C48FCF758FC0B4B062108221B68D8
:101020008DF80410ADF8062001A8984703B05DF8CC
:1010300004FB00BF300100101C7C0240341D002066
:10104000291D00202C1D0020541E002000B5184B27
:101050001B68082B83B002D1164B00221A60164B76
:10106000164993F81E210020032A087005D0D3F8F2
:10107000103153B103B05DF804FB6FF48071104878
:10108000FCF722FC03B05DF804FB6FF480710C48A0
:10109000FCF71AFC0B4B062188221B688DF8041004
:1010A000ADF8062001A8984703B05DF804FB00BF27
:1010B000300100101C7C0240341D0020291D00203E
:1010C0002C1D0020541E00200B4B1B68082B02D146
:1010D0000A4B00221A600A4B0A4993F89E2000200E
:1010E000032A087003D0D3F8903003B17047064844
:1010F0006FF00101FCF7E8BB300100101C7C0240DE
:10110000341D0020291D00202C1D00200B4B1B68C6
:10111000082B02D10A4B00221A600A4B0A4993F8A5
:101120000E210020032A087003D0D3F8003103B148
:10113000704706486FF08001FCF7C6BB3001001015
:101140001C7C0240341D0020291D00202C1D002085
:101150000B4B1B68082B02D10A4B00221A600A4B6A
:101160000A4993F8AE200020032A087003D0D3F870
:10117000A03003B1704706486FF00201FCF7A4BB32
:10118000300100101C7C0240341D0020291D00206D
:101190002C1D00200B4B1B68082B02D10A4B002290
:1011A0001A600A4B0A4993F8BE200020032A0870EF
:1011B00003D0D3F8B03003B1704706486FF0040194
:1011C000FCF782BB300100101C7C0240341D002063
:1011D000291D00202C1D00200B4B1B68082B02D161
:1011E0000A4B00221A600A4B0A4993F8CE200020CD
:1011F000032A087003D0D3F8C03003B17047064803
:101200006FF00801FCF760BB300100101C7C02404D
:10121000341D0020291D00202C1D00200B4B1B68B5
:10122000082B02D10A4B00221A600A4B0A4993F894
:10123000DE200020032A087003D0D3F8D03003B199
:10124000704706486FF01001FCF73EBB30010010FC
:101250001C7C0240341D0020291D00202C1D002074
:101260000B4B1B68082B02D10A4B00221A600A4B59
:101270000A4993F8EE200020032A087003D0D3F81F
:10128000E03003B1704706486FF02001FCF71CBB4B
:10129000300100101C7C0240341D0020291D00205C
:1012A0002C1D00200B4B1B68082B02D10A4B00227F
:1012B0001A600A4B0A4993F8FE200020032A08709E
:1012C00003D0D3F8F03003B1704706486FF0400107
:1012D000FCF7FABA300100101C7C0240341D0020DB
:1012E000291D00202C1D002010B5174B1B68082B52
:1012F00082B002D1154B00221A60154B154C9A7F13
:101300000021032A217005D01B696BB1FFF70EFD88
:1013100002B010BD10486FF40031FCF7D5FA237805
:10132000002BF3D002B010BD6FF400310A48FCF777
:10133000CBFA0A4B062101221B688DF80410ADF888
:10134000062001A89847EAE7300100101C7C024003
:10135000341D0020291D00202C1D0020541E0020BB
:1013600010B5174B1B68082B82B002D1154B002219
:101370001A60154B154C93F86E200021032A21703A
:1013800005D01B6E6BB1FFF7D1FC02B010BD104849
:101390006FF48001FCF798FA2378002BF3D002B0A9
:1013A00010BD6FF480010A48FCF78EFA094A062343
:1013B00012688DF80430ADF8063001A89047EBE7CD
:1013C000300100101C7C0240341D0020291D00202B
:1013D0002C1D0020541E002010B5184B1B68082B34
:1013E00082B002D1164B00221A60164B164C93F8AD
:1013F0007E200021032A217005D01B6F6BB1FFF7FF
:1014000095FC02B010BD11486FF40001FCF75CFAC6
:101410002378002BF3D002B010BD6FF400010B480D
:10142000FCF752FA0A4B062107221B688DF80410BC
:10143000ADF8062001A89847EAE700BF3001001088
:101440001C7C0240341D0020291D00202C1D002082
:10145000541E002010B5184B1B68082B82B002D117
:10146000164B00221A60164B164C93F82E200021C2
:10147000032A217005D01B6A6BB1FFF757FC02B03D
:1014800010BD11486FF48021FCF71EFA2378002B61
:10149000F3D002B010BD6FF480210B48FCF714FAB2
:1014A0000A4B062102221B688DF80410ADF80620B5
:1014B00001A89847EAE700BF300100101C7C0240F9
:1014C000341D0020291D00202C1D0020541E00204A
:1014D00010B5184B1B68082B82B002D1164B0022A6
:1014E0001A60164B164C93F83E200021032A2170F7
:1014F00005D01B6B6BB1FFF719FC02B010BD114892
:101500006FF40021FCF7E0F92378002BF3D002B050
:1015100010BD6FF400210B48FCF7D6F90A4B0621E9
:1015200003221B688DF80410ADF8062001A8984727
:10153000EAE700BF300100101C7C0240341D00208F
:10154000291D00202C1D0020541E002010B5184B12
:101550001B68082B82B002D1164B00221A60164B72
:10156000164C93F84E200021032A217005D01B6CE5
:101570006BB1FFF7DBFB02B010BD11486FF48011B7
:10158000FCF7A2F92378002BF3D002B010BD6FF462
:1015900080110B48FCF798F90A4B042206211B68BE
:1015A0008DF80410ADF806200DEB02009847E9E72E
:1015B000300100101C7C0240341D0020291D002039
:1015C0002C1D0020541E00202DE9F047524BD3F86B
:1015D0006C44C3F86C4482B0BFF36F8FBFF34F8F7E
:1015E0004E4E04B34E4DDFF854814E4F94FAA4F1A1
:1015F00001B3B1FA81FCBCF10F0F614629DD4A4B02
:10160000D8F800201868012303FA0CFC103942EACC
:101610000C021CEA000FC9B224EA0C04C8F800202E
:1016200009D0002CE2D133780BB9FFF77FFB02B071
:10163000BDE8F0871021012306228DF807308DF8D0
:1016400006102B688DF8042001A89847002CCDD1F6
:10165000E9E70CF00F0E354AD8F8000032F81E20EA
:1016600002F1804202F51C32012303FA0CF91368DF
:1016700040EA090024EA0904C8F800004CF0800A96
:101680007146D3B100231360BFF36F8FBFF34F8F49
:10169000274ABAF1800F126829D0082A08BF3B6098
:1016A000244B03EB0E120020927B3070032A4FEA8A
:1016B0000E1E14D053F80E308BB11B4B1B6819EA69
:1016C0000303AED106228DF807308DF806A02B68F3
:1016D0008DF8042001A89847002C87D1A3E70123A7
:1016E00003FA01F1C9431048FCF7EEF8E5E7082AD0
:1016F00008BF3B60104B93F89E200021032A3170F5
:1017000003D0D3F89030002BD7D16FF001010648F9
:10171000FCF7DAF8D1E700BF00700240291D002075
:10172000541E00201C7C02402C1D00207C700200F6
:1017300030010010C41D0020341D0020301D002089
:101740002DE9F04F664C674E674F236896F90010FD
:101750003A68DFF8AC9196F80080D9F88054DB4302
:101760009BB2002985B043EA020327DB08F00F0B88
:101770000BF110024FF0010A0AFA02FA13EA0A0FFB
:1017800047D15A4F0DF10C0805F080056FF001119B
:1017900055483570FCF798F823683968002205250C
:1017A00043F0010340468DF80F20ADF80D208DF871
:1017B0000C502360884705B0BDE8F08F08F00F0A91
:1017C0004FF0010909FA0AF913EA090FD9D00020EC
:1017D000FBF71CFB18F0080F10D1B8F1800F70D088
:1017E0004349444A0AF2DA335B000B60136811681C
:1017F000DBB243F002030B431360136823683A68BB
:1018000062EA030111EA090F21D1384F0DF10C08EA
:1018100019E00020FBF7FAFA3B6837483AEA03027E
:1018200000EB0B114FEA0B1E31D140F80E2022685D
:1018300023EA0A0322EA0A023B60226003232B4FB9
:101840008B730DF10C080020FBF7E8FA9CE72B499D
:101850008DF80E804FEA0A1022EA090201EB0A1AFB
:101860003A604FF0000C214F41F800C003220621DE
:101870000DF10C0843EA09038AF80E208DF80F20B9
:101880008DF80C103A68236040469047DBE7002053
:101890000191FBF7BBFA2368019923EA0A0323604D
:1018A00018F0080307D10BF5947B49F82B30BFF3F0
:1018B0006F8FBFF34F8F00200191FBF7AFFA0199B3
:1018C000BCE70B4B0B4A40F2B47119601368116806
:1018D000DBB243F004030B43136013688EE700BFD1
:1018E000301D0020581E00202C1D0020541E0020FA
:1018F0000078024004780240341D0020C41D0020FE
:1019000000700240F0B5044683B00020FBF77EFA79
:10191000220620D44149424A0B6804F00F0606F122
:1019200010000125854035EA030C4FEA061E02EB44
:1019300006174DD13B4842F80EC0026823EA050362
:1019400022EA05050B6005600323BB730020FBF74B
:1019500065FA03B0F0BD230704F00F020FD4802C0A
:101960004ED03148314902F2DA335B0003600B6834
:101970000868DBB243F0020303430B600B68294D98
:10198000264E29683068012360EA010793401F4210
:10199000DCD0274F8DF806404FEA021C20EA0300F6
:1019A00007EB02123060234C002047F80C000B4379
:1019B0000620032191738DF8071022688DF804002A
:1019C00001A82B6090470020FBF728FA03B0F0BD78
:1019D0000020FBF71BFA134A136814F0080423EAEB
:1019E0000505156008D1144B06F5947643F826409A
:1019F000BFF36F8FBFF34F8F0020FBF70FFAA3E702
:101A0000094B0A4940F2B47018600B680868DBB2F1
:101A100043F0040303430B600B68B0E72C1D002068
:101A2000341D0020301D0020007802400478024060
:101A3000C41D0020541E002000700240F8B5294B40
:101A4000D3F80413002944D00024DFF8A8C02746A7
:101A5000012691FAA1F3244AB3FA83F085002A44BF
:101A60003BB3156806FA00F321EA03012DB11760B4
:101A7000BFF36F8FBFF34F8F1C430029E9D104F4EC
:101A8000000634F400040FD0184F012594FAA4F393
:101A9000B3FA83F205FA02F18BB124EA010457F894
:101AA00022309847002CF1D1114B1B784BB166B90D
:101AB000F8BDDCF80020002ACBD06246D7E7984773
:101AC000E4E7FFF733F9002EF2D0BDE8F840FFF766
